:020000040800F2
:1000000018040020C90000081D020008E5010008CE
:1000100000000000000000000000000000000000E0
:10002000000000000000000000000000390200088D
:1000300000000000000000001F020008ED020008A0
:10004000F900000800000000F9000008F9000008AD
:10005000F9000008F9000008F9000008F90000089C
:1000600000000000F9000008F9000008F90000088D
:10007000F9000008F9000008F9000008000000007D
:10008000F90000080000000000000000F90000086E
:10009000F9000008F9000008F9000008F90000085C
:1000A000F9000008F9000008F9000008F90000084C
:1000B000F90000080348854600F048F8004800476A
:1000C000D5030008180400200C4880F308880C4869
:1000D0000168090E0B4A914205D10B480B4901609A
:1000E0000B480C4901600C4880470C480047FEE76C
:1000F000FEE7FEE7FEE7FEE7FEE70000180400204B
:10010000040000001F000000181002400100000061
:100110000000014000000000F1020008B5000008E6
:1001200030B50B46014600202022012409E00D468F
:10013000D5409D4205D31D469540491B2546954017
:1001400040191546521E002DF1DC30BD064C01252C
:10015000064E05E0E36807CC2B430C3C984710346F
:10016000B442F7D3FFF7AAFF0404000824040008F0
:10017000F0B50022032501230C6893401C409C42EB
:100180002AD10C79012C01D0022C12D1876854009D
:100190002E46A640B74387604E79A6408468264322
:1001A000866084889C43848084888B7993401C4338
:1001B0008480066853002C469C40A64306600E7956
:1001C00007689E403E430660C668A643C660CC7979
:1001D0009C40C3681C43C460521C102ACBD3F0BDA2
:1001E00081617047FEE700001CB50121880400F022
:1001F00017F8082000900120694608710320487113
:1002000000208871044CC8712046FFF7B1FF082117
:100210002046FFF7E5FF1CBD00040048704770470B
:10022000044A0029516901D0014300E08143516132
:100230007047000000100240704700001CB500230A
:1002400022480093019301680122120411430160C6
:1002500051000524240302680A400192009A521CAE
:100260000092019A002A02D1009AA242F3D10168B9
:10027000890328D501210191154A11211160416896
:1002800041604168416041687F22D20391434160EF
:1002900041681122120411434160016801221206D3
:1002A0001143016001688901FCD541688908890012
:1002B0004160416802221143416041680907890F8A
:1002C0000229FAD11CBD01931CBD000000100240A0
:1002D00000200240042204490428086902D0904307
:1002E000086170471043FBE700E000E07047000042
:1002F00010B5144801680122114301604168124A97
:10030000114041600168114A1140016001680122F9
:1003100092049143016041683F221204914341607D
:10032000C16A09090901C162016BFF22543291437C
:100330000163416B49084900416300218160FFF777
:100340007DFF10BD001002400CB8FF08FFFFF6FE55
:1003500002E008C8121F08C1002AFAD1704770478E
:10036000002001E001C1121F002AFBD170470000EC
:1003700010B50420C043FFF7ADFF074805490068EA
:10038000FFF7CEFE0549C0B27D220870D20050436F
:10039000488010BD00127A000400002000000020F8
:1003A0000A49498848430A49486100238B61086922
:1003B0000122104308610869C20701D0C003FAD5C1
:1003C00008694008400008618B6170470000002008
:1003D00000E000E0FFF708FFFFF7CAFF084C082520
:1003E000FF26F536A08A2843A0823046FFF7D8FFC3
:1003F000A08AA843A0823046FFF7D2FFF2E70000B0
:100400000004004824040008000000201800000038
:10041000500300083C0400081800002000040000FD
:100420006003000800000000006CDC020000000017
:0C04300000000000010203040607080998
:04000005080000B53A
:00000001FF
